:020000040800F2
:10800000600400209D810008C38D0008D78C000803
:10801000C18D0008A9820008F98F00080000000047
:10802000000000000000000000000000C78D0008F4
:10803000AB82000800000000C58D0008C98D000853
:10804000B7810008B7810008B7810008B781000830
:10805000B7810008B7810008B7810008B781000820
:10806000B7810008B7810008B7810008B781000810
:10807000B7810008B7810008B7810008B781000800
:10808000B7810008B7810008B7810008B7810008F0
:10809000B7810008B7810008B7810008B7810008E0
:1080A000B7810008B7810008B7810008B7810008D0
:1080B000B7810008B7810008B7810008B7810008C0
:1080C000B7810008B7810008B7810008B7810008B0
:1080D000B7810008B7810008B7810008B7810008A0
:1080E000B7810008B7810008B7810008B781000890
:1080F000B7810008B7810008B7810008B781000880
:10810000B7810008B7810008B7810008B78100086F
:10811000B7810008B7810008B7810008B78100085F
:10812000B7810008B7810008B7810008B78100084F
:10813000B7810008B7810008B7810008B78100083F
:10814000B7810008B7810008B7810008B78100082F
:10815000B7810008B7810008B7810008B78100081F
:10816000B7810008B7810008B7810008B78100080F
:10817000B7810008B7810008B7810008000000003F
:10818000B7810008B7810008DFF80CD000F07AF85A
:1081900000480047DD900008600400200648804742
:1081A00006480047FEE7FEE7FEE7FEE7FEE7FEE7DC
:1081B000FEE7FEE7FEE7FEE7658E0008898100081E
:1081C0002DE9F05F0546002092469B46884606460C
:1081D000814640241BE0284641464746224600F09F
:1081E00041F853465A46C01A914110D311461846D9
:1081F000224600F028F82D1A67EB01084F46224668
:108200000120002100F01FF817EB00094E41201E4D
:10821000A4F10104DFDC484631462A464346BDE866
:10822000F09FD2B201E000F8012B491EFBD270474B
:108230000022F6E710B513460A4604461946FFF732
:10824000F0FF204610BD202A04DB203A00FA02F19C
:10825000002070479140C2F1200320FA03F3194334
:1082600090407047202A04DB203A21FA02F00021D6
:10827000704721FA02F3D040C2F120029140084336
:1082800019467047064C074D06E0E06840F00103D0
:1082900094E8070098471034AC42F6D3FFF778FF14
:1082A0003491000854910008FEE7704772B6FEE76B
:1082B0002DE9F84FDFF8BCA10022012503264FF07D
:1082C0000F090AF1040BAAF1040E00BF0B6805FAAE
:1082D00002F42340A34270D10F7907F00307012F66
:1082E00001D0022F16D187684FEA420806FA08FC2F
:1082F00027EA0C07D1F80CC00CFA08FC4CEA070C72
:10830000C0F808C04768A7430C79C4F30014944030
:108310003C4344600C79E443A4070AD0C4684FEAA4
:10832000420C06FA0CF7BC438F6807FA0CF7274398
:10833000C7600C7904F00304022C12D1D40800EBBE
:10834000840CDCF820405707FF0E09FA07F824EAEE
:108350000804D1F8108008FA07F848EA0408CCF8B5
:10836000208004684FEA420C06FA0CF7BC430F79F0
:1083700007F0030707FA0CF7274307604C6814F46B
:10838000403F70D03C4C276847F480472760246802
:1083900022F0030704F480440094384C07EB040CEB
:1083A000DCF8084897074FEA177809FA08F7BC4342
:1083B000334FB84202D1002724E054E0314FB84295
:1083C00001D101271EE0304FB84201D1022719E048
:1083D0002E4FB84201D1032714E02D4FB84201D1EE
:1083E00004270FE02B4FB84201D105270AE02A4F9E
:1083F000B84201D1062705E0284FB84201D107272E
:1084000000E0082707FA08F72743CCF80878DAF8DD
:1084100000405746D1F804C09C435FEACC2C00D5FD
:108420001C433C60DBF800405F46D1F804C09C432D
:108430005FEA8C2C00D51C433C60DEF80040774698
:10844000D1F804C09C435FEA8C3C00D51C433C60DF
:10845000084F083F3C68D1F804C09C435FEACC3C1D
:1084600000D51C433C60521C102AFFF42FAFBDE81E
:10847000F88F0000083C01404438024000300140C1
:10848000000002400004024000080240000C0240CC
:10849000001002400014024000180240001C02407C
:1084A0000069084000D001207047426921EA0203B8
:1084B0000A4043EA0241816170470AB18161704715
:1084C0000904FBE7014880687047000008000020AD
:1084D00002488168027811448160704708000020DA
:1084E0000B4810B5016841F400710160016841F466
:1084F00080610160016841F480710160032000F037
:1085000061F80F2000F006F800F024F8002010BDFC
:10851000003C024070B50D4D04464FF47A71287846
:10852000B1FBF0F00A490968B1FBF0F000F0FEFA87
:1085300048B9102C07D200222146501E00F022F824
:1085400000206C6070BD012070BD0000080000209C
:10855000140000200A4808B5016841F48041016018
:10856000006800F4804000900548001F016841F059
:1085700080510160006800F08050009008BD00004C
:1085800044380240F0B40E4B1B680C46C3F3022380
:10859000C3F10705042D00D90425191D072901D2AF
:1085A000002300E0DB1E012606FA05F1491E2140EA
:1085B00099409E40761E16403143F0BC00F026BD27
:1085C0000CED00E0064900F0070208684FF6FF03D3
:1085D000184040EA0220034A104308607047000038
:1085E0000CED00E00000FA052DE9F0470E4605000D
:1085F00065D0DFF81481D8F80000F7B200F007006A
:10860000B04207D288F80070D8F8000000F00700E8
:10861000B04254D128683D4C810712D5400703D59C
:10862000206840F4E05020602878000703D52068D7
:1086300040F4604020602068A96820F0F000084302
:1086400020602878C0072DD0304968680839012893
:1086500012D0022813D0032811D0096889070029F5
:108660002DDA216821F0030101432160FFF72AFF81
:10867000814641F2883A0EE009688903EFE709680C
:108680008901ECE7FFF71EFFA0EB0901514502D974
:108690000320BDE8F0872068696800F00C00B0EBAB
:1086A000810FEFD1D8F80010404601F00701B14228
:1086B00007D90770006800F00700B04201D0012020
:1086C000E7E72878400705D52068E96820F4E050FE
:1086D000084320602878000706D52068296920F41F
:1086E000604040EAC100206000F038F82168084A84
:1086F000C1F30311515CC840064908600648006890
:10870000FFF708FF0020C4E7003C024008380240A1
:108710001C910008140000200C00002004480549AA
:1087200000680968044AC1F38221515CC84070475F
:1087300014000020083802402C9100080448054924
:1087400000680968044AC1F34231515CC84070476F
:1087500014000020083802402C910008154810B57C
:10876000006810F00C02144813D01449042A0FD0EA
:10877000082A0ED10F4C241F2268236802F03F0202
:108780005B0207D52068C0F38810A0FB010106E05A
:10879000084610BD2168C1F38811A1FB0001002328
:1087A000FFF70EFD2168C1F30141491C4900B0FBF0
:1087B000F1F010BD083802400024F40040787D013B
:1087C0002DE9F84F04006ED02078DFF84C93C007F5
:1087D000A9F104054AD009F104000168C1F381013F
:1087E000012908D00068C0F3810002280AD1D9F815
:1087F0000000400206D52868800337D5606800284D
:10880000E1D033E06068B0F5803F10D0B0F5A02F24
:10881000286810D020F480302860286820F4802058
:1088200028606068A8B1FFF74DFE06460DE0286895
:1088300040F48030F4E740F480202860F7E700BF80
:10884000FFF740FE801B642873D828688003F7D5A3
:108850000CE0FFF737FE064605E000BFFFF732FEEB
:10886000801B6428F0D828688003F7D42078DFF8CC
:10887000AC8280074FF0000A3ED5A748001D016872
:1088800011F00C0F08D00068C0F3810002280BD152
:10889000D9F80000400207D42868800716D5E068A0
:1088A000012800D112E033E1E068B8B10120C8F836
:1088B0000000FFF707FE064605E000BFFFF702FED7
:1088C000801B0228C0D828688007F7D5286821694E
:1088D00020F0F80040EAC10028600DE0C8F800A0D0
:1088E000FFF7F0FD064604E0FFF7ECFD801B0228D1
:1088F0001FD828688007F7D42078000722D5864F34
:1089000087486169703771B101210160FFF7DAFDB5
:10891000064604E0FFF7D6FD801B022809D8386818
:108920008007F7D50EE0C0F800A0FFF7CBFD0646A4
:1089300005E082E0FFF7C6FD801B02287DD838687D
:108940008007F7D42078400768D5DFF8CCB100273E
:108950000BF13C0BDBF80000C0000BD4DBF800107F
:1089600041F08051CBF80010DBF80000012700F047
:10897000805000906B4E3068C00510D4306840F4D1
:1089800080703060FFF79EFD009005E0FFF79AFDD4
:108990000099401A022850D83068C005F6D55E4EBE
:1089A000A0686C3601280FD00528306810D020F060
:1089B00001003060306820F004003060A068B8B179
:1089C000FFF780FD00900FE0306840F00100F4E711
:1089D00040F004003060F7E7FFF774FD0099411A9A
:1089E00041F28830814266D830688007F4D50EE0C5
:1089F000FFF768FD009007E0FFF764FD0099411A5A
:108A000041F28830814256D830688007F4D42FB1C3
:108A1000DBF8001021F08051CBF80010A069C8B33A
:108A20003D49091D0968C1F3810102294AD0022884
:108A3000504607D0C8F8600000E03CE0FFF742FD78
:108A400004463BE04746C8F86000FFF73BFD06469A
:108A500005E000BFFFF736FD801B02282BD82868F1
:108A60008001F7D4D4E907010843A16A2E4A4908D6
:108A700002EB0141626A41EA8211084394F82C102A
:108A800040EA0161C9F8001001203866FFF71AFDBD
:108A9000044606E03EE000BFFFF714FD001B02287D
:108AA00009D828688001F7D534E000BFFFF70AFD38
:108AB000001B022802D90320BDE8F88F2868800136
:108AC000F4D427E00128F7D0D9F80000E26900F4D7
:108AD000800191421CD1226A00F03F01914217D1DE
:108AE00047F6C071626A0140B1EB821F10D1A26AE1
:108AF0004FF0FF3300F4403103EB5202B1EB024F71
:108B000006D194F82C1000F07060B0EB016F01D02A
:108B10000120D1E70020CFE704380240000047429F
:108B2000800E4742007000400000FFFF10B5401E5D
:108B3000B0F1807F01D3012010BD4FF0E0246061CF
:108B40000F21601700F062FA0020A0610720206169
:108B5000002010BD70B5040004D094F83D0000253D
:108B600010B106E0012070BD84F83C50204600F0B2
:108B700023F8242084F83D002068C16821F40051C6
:108B8000C160204600F076F92068016921F4904127
:108B900001612068416921F02A0141612068C168B2
:108BA00041F40051C1602564202084F83D0084F820
:108BB0003E00002070BD000010B586B004461421B0
:108BC0006846FFF735FB14492068884221D11348D5
:108BD0000021026842F010020260006800F01000FC
:108BE00005900E481438026842F0010202600068E5
:108BF00000F0010005904FF4C06000900220CDE924
:108C00000101032003900720049069460448FFF700
:108C10004FFB06B010BD0000001001404438024078
:108C2000000002402DE9F843044690F83D001F463D
:108C300016460D4620284CD1C5B1BEB194F83C0073
:108C4000012846D0012084F83C004FF00008C4F809
:108C50004080212084F83D00FFF734FCA684814643
:108C6000E684A068B0F5805F03D004E00120BDE891
:108C7000F883206928B12E465FF0000584F83C8017
:108C80000EE00026FAE78021204600F079F9A0B92D
:108C9000AEB116F8010B21684860E08C401EE084FC
:108CA000E08C4B464FF0000200970028EBD14FF0CC
:108CB0004001204600F064F930B10320D7E735F8D1
:108CC000020BC0F30800E6E7202084F83D000020F6
:108CD000CDE70220CBE7FEE7F0B587B01421684668
:108CE000FFF7A6FA24480024016841F080010160E2
:108CF000016801F080010591016841F00101016006
:108D0000016801F001010591016841F00401016071
:108D1000016801F004010591016841F00201016060
:108D20000068164E00F00200059001222021304616
:108D3000FFF7C3FB124F012204213846FFF7BDFBAA
:108D4000122001258DE8310069460E48FFF7B0FA80
:108D500020200090CDE90154694630460394FFF786
:108D6000A7FA04200090CDE90154694638460394DF
:108D7000FFF79EFA07B0F0BD30380240000802400D
:108D800000040240000002400C4810B50A4901608E
:108D90004FF416514160002181600C22C160C0E98E
:108DA00004128161C161FFF7D5FE002803D0BDE840
:108DB0001040FFF77BBA10BD0010014018000020E2
:108DC000FEE7FEE770477047FFF782BB30B593B010
:108DD00030216846FFF72CFA14210CA8FFF728FA77
:108DE0001E480025016841F080510160006800F0D4
:108DF000805011901A48016841F480410160006878
:108E0000022400F4804011900120009000040190A1
:108E10008001CDE90640192008904FF4A870CDE9F3
:108E2000090404200B906846FFF7CAFC08B172B62B
:108E3000FEE70CA90F2081E831004FF4A0500F90FD
:108E40004FF48050109005210CA8FFF7CDFB0028AF
:108E500001D072B6FEE713B030BD000040380240CA
:108E6000007000400248016841F4700101607047E1
:108E700088ED00E070B5044600680169E26821F4FD
:108E80004051114301612169A068E26908436169A9
:108E9000114308432168CA6849F20C639A430243AC
:108EA000CA6020684169A26921F44071114341619F
:108EB00031492068884202D03049884202D1FFF708
:108EC0003DFC01E0FFF72AFCE2690023192164253B
:108ED0003226B2F5004F626828D0A0FB0101930F43
:108EE0009200FFF76DF90146B0FBF5F06FF0180244
:108EF000504301EB800006EB0010B0FBF5F000F0F2
:108F0000F002B1FBF5F002EB0012B1FBF5F06FF0EF
:108F10001803584301EB800006EB0010B0FBF5F09E
:108F200000F00F0021681044886070BDA0FB0101B3
:108F300092185B41FFF744F90146B0FBF5F00201DE
:108F4000B1FBF5F06FF01803584301EB800006EB1E
:108F5000C000B0FBF5F000F0F80002EB4002B1FBFE
:108F6000F5F0584301EB800006EBC000B0FBF5F0D4
:108F700000F00700D6E70000001001400014014097
:108F80002DE9F041984617460E460446069D27E017
:108F9000681C25D02DB1FFF795FAA0EB0800A84278
:108FA0001ED920680C3050E8001F21F4D07140E831
:108FB0000012002AF5D12068143050E8001F21F07B
:108FC000010140E80012002AF5D1202084F83D007C
:108FD00084F83E00002084F83C000320BDE8F081C6
:108FE0002068006836EA000004D00020B842CFD0E4
:108FF0000020F3E70120F9E7FEE70000014A0249FB
:1090000000F023B86D900008040000200907090E45
:10901000002804DB00F1E02080F80014704700F025
:109020000F0000F1E02080F8141D704702E008C82E
:10903000121F08C1002AFAD170477047002001E0D2
:1090400001C1121F002AFBD170472DE9F0411646DD
:109050000F460446002503E03946B047641C6D1CEA
:1090600020780028F8D12846BDE8F08113B540F6F5
:10907000FF73012269460248FFF7D4FD00981CBD2A
:1090800018000020104810B5026810490B68D21A69
:10909000642A17D3006808600D4C02212046FFF7B0
:1090A000FFF918B920210B48FFF7FFF910212046DE
:1090B000FFF7F6F9002805D1BDE810400421064865
:1090C000FFF7F3B910BD00001000002000000020E1
:1090D000000002400008024000040240094908481C
:1090E0000860FFF7FDF9FFF771FEFFF7F5FDFFF7E9
:1090F0004BFE05A0FFF782FFFFF7C4FFFCE700006F
:109100000080000808ED00E041505020BFAACABC12
:10911000D4CBD0D0202E2E2E2E2E2E0000000000DC
:109120000000000001020304060708090000000017
:109130000102030454910008000000201800000000
:109140002C9000086C9100081800002048040000D2
:109150003C9000080000000000000000010000003A
:0C91600010000000000000000024F400DB
:0400000508008189E5
:00000001FF
